{
  "_format": "hh-sol-artifact-1",
  "contractName": "Bridge",
  "sourceName": "contracts/Bridge.sol",
  "abi": [
    {
      "inputs": [
        {
          "internalType": "address",
          "name": "usdcAddress",
          "type": "address"
        }
      ],
      "stateMutability": "nonpayable",
      "type": "constructor"
    },
    {
      "anonymous": false,
      "inputs": [
        {
          "components": [
            {
              "internalType": "address",
              "name": "user",
              "type": "address"
            },
            {
              "internalType": "uint256",
              "name": "usdc",
              "type": "uint256"
            },
            {
              "internalType": "uint256",
              "name": "timestamp",
              "type": "uint256"
            }
          ],
          "indexed": false,
          "internalType": "struct DepositEvent",
          "name": "e",
          "type": "tuple"
        }
      ],
      "name": "Deposit",
      "type": "event"
    },
    {
      "anonymous": false,
      "inputs": [
        {
          "indexed": true,
          "internalType": "address",
          "name": "previousOwner",
          "type": "address"
        },
        {
          "indexed": true,
          "internalType": "address",
          "name": "newOwner",
          "type": "address"
        }
      ],
      "name": "OwnershipTransferred",
      "type": "event"
    },
    {
      "anonymous": false,
      "inputs": [
        {
          "components": [
            {
              "internalType": "address",
              "name": "user",
              "type": "address"
            },
            {
              "internalType": "uint256",
              "name": "usdc",
              "type": "uint256"
            },
            {
              "internalType": "uint256",
              "name": "nonce",
              "type": "uint256"
            },
            {
              "components": [
                {
                  "internalType": "uint256",
                  "name": "r",
                  "type": "uint256"
                },
                {
                  "internalType": "uint256",
                  "name": "s",
                  "type": "uint256"
                },
                {
                  "internalType": "uint8",
                  "name": "v",
                  "type": "uint8"
                }
              ],
              "internalType": "struct Signature",
              "name": "sig",
              "type": "tuple"
            },
            {
              "internalType": "uint256",
              "name": "timestamp",
              "type": "uint256"
            }
          ],
          "indexed": false,
          "internalType": "struct WithdrawEvent",
          "name": "e",
          "type": "tuple"
        }
      ],
      "name": "Withdraw",
      "type": "event"
    },
    {
      "inputs": [
        {
          "internalType": "uint256",
          "name": "",
          "type": "uint256"
        },
        {
          "internalType": "address",
          "name": "",
          "type": "address"
        }
      ],
      "name": "amountDepositedPerPeriod",
      "outputs": [
        {
          "internalType": "uint256",
          "name": "",
          "type": "uint256"
        }
      ],
      "stateMutability": "view",
      "type": "function"
    },
    {
      "inputs": [
        {
          "internalType": "uint256",
          "name": "usdc",
          "type": "uint256"
        }
      ],
      "name": "deposit",
      "outputs": [],
      "stateMutability": "nonpayable",
      "type": "function"
    },
    {
      "inputs": [],
      "name": "isLocked",
      "outputs": [
        {
          "internalType": "bool",
          "name": "",
          "type": "bool"
        }
      ],
      "stateMutability": "view",
      "type": "function"
    },
    {
      "inputs": [],
      "name": "maxDepositPerPeriod",
      "outputs": [
        {
          "internalType": "uint256",
          "name": "",
          "type": "uint256"
        }
      ],
      "stateMutability": "view",
      "type": "function"
    },
    {
      "inputs": [],
      "name": "owner",
      "outputs": [
        {
          "internalType": "address",
          "name": "",
          "type": "address"
        }
      ],
      "stateMutability": "view",
      "type": "function"
    },
    {
      "inputs": [],
      "name": "renounceOwnership",
      "outputs": [],
      "stateMutability": "nonpayable",
      "type": "function"
    },
    {
      "inputs": [],
      "name": "secondsPerDepositPeriod",
      "outputs": [
        {
          "internalType": "uint256",
          "name": "",
          "type": "uint256"
        }
      ],
      "stateMutability": "view",
      "type": "function"
    },
    {
      "inputs": [
        {
          "internalType": "bool",
          "name": "_isLocked",
          "type": "bool"
        }
      ],
      "name": "setIsLocked",
      "outputs": [],
      "stateMutability": "nonpayable",
      "type": "function"
    },
    {
      "inputs": [
        {
          "internalType": "uint256",
          "name": "amount",
          "type": "uint256"
        }
      ],
      "name": "setMaxDepositPerPeriod",
      "outputs": [],
      "stateMutability": "nonpayable",
      "type": "function"
    },
    {
      "inputs": [
        {
          "internalType": "uint256",
          "name": "_seconds",
          "type": "uint256"
        }
      ],
      "name": "setSecondsPerDepositPeriod",
      "outputs": [],
      "stateMutability": "nonpayable",
      "type": "function"
    },
    {
      "inputs": [
        {
          "internalType": "address[]",
          "name": "users",
          "type": "address[]"
        },
        {
          "internalType": "bool",
          "name": "state",
          "type": "bool"
        }
      ],
      "name": "setUsersWhitelistState",
      "outputs": [],
      "stateMutability": "nonpayable",
      "type": "function"
    },
    {
      "inputs": [
        {
          "internalType": "bool",
          "name": "state",
          "type": "bool"
        }
      ],
      "name": "setWhitelistOnly",
      "outputs": [],
      "stateMutability": "nonpayable",
      "type": "function"
    },
    {
      "inputs": [
        {
          "internalType": "address",
          "name": "newOwner",
          "type": "address"
        }
      ],
      "name": "transferOwnership",
      "outputs": [],
      "stateMutability": "nonpayable",
      "type": "function"
    },
    {
      "inputs": [
        {
          "internalType": "address",
          "name": "",
          "type": "address"
        }
      ],
      "name": "whitelist",
      "outputs": [
        {
          "internalType": "bool",
          "name": "",
          "type": "bool"
        }
      ],
      "stateMutability": "view",
      "type": "function"
    },
    {
      "inputs": [],
      "name": "whitelistOnly",
      "outputs": [
        {
          "internalType": "bool",
          "name": "",
          "type": "bool"
        }
      ],
      "stateMutability": "view",
      "type": "function"
    },
    {
      "inputs": [
        {
          "components": [
            {
              "internalType": "uint256",
              "name": "r",
              "type": "uint256"
            },
            {
              "internalType": "uint256",
              "name": "s",
              "type": "uint256"
            },
            {
              "internalType": "uint8",
              "name": "v",
              "type": "uint8"
            }
          ],
          "internalType": "struct Signature",
          "name": "sig",
          "type": "tuple"
        },
        {
          "internalType": "uint256",
          "name": "usdc",
          "type": "uint256"
        },
        {
          "internalType": "uint256",
          "name": "nonce",
          "type": "uint256"
        }
      ],
      "name": "withdraw",
      "outputs": [],
      "stateMutability": "nonpayable",
      "type": "function"
    },
    {
      "inputs": [],
      "name": "withdrawAllUsdcToOwner",
      "outputs": [],
      "stateMutability": "nonpayable",
      "type": "function"
    }
  ],
  "bytecode": "0x608060405234801561001057600080fd5b5060405161166238038061166283398101604081905261002f916100dd565b6100383361008d565b600180546001600160a01b0319166001600160a01b03929092169190911781556004805461ffff19169055336000908152600360205260409020805460ff19169091179055600019600581905560065561010d565b600080546001600160a01b038381166001600160a01b0319831681178455604051919092169283917f8be0079c531659141344cd1fd0a4f28419497f9722a3daafe3b4186f6b6457e09190a35050565b6000602082840312156100ef57600080fd5b81516001600160a01b038116811461010657600080fd5b9392505050565b6115468061011c6000396000f3fe608060405234801561001057600080fd5b506004361061011b5760003560e01c80639b19251a116100b2578063b6b55f2511610081578063ea05a8c611610066578063ea05a8c614610236578063f2fde38b14610249578063fb6e692f1461025c57600080fd5b8063b6b55f2514610210578063e2d0b7c61461022357600080fd5b80639b19251a146101c4578063a4e2d634146101e7578063a8dd70a2146101f4578063b3b3157b1461020757600080fd5b806362d5eaf6116100ee57806362d5eaf61461017b578063715018a61461018e5780638c8fae40146101965780638da5cb5b146101a957600080fd5b806305e4c44b146101205780634b4687b51461013c57806359f102621461015e5780635b4d793d14610168575b600080fd5b61012960055481565b6040519081526020015b60405180910390f35b60045461014e90610100900460ff1681565b6040519015158152602001610133565b610166610287565b005b610166610176366004611213565b6103ad565b61016661018936600461129c565b610837565b610166610844565b6101666101a43660046112d3565b610858565b6000546040516001600160a01b039091168152602001610133565b61014e6101d236600461130c565b60036020526000908152604090205460ff1681565b60045461014e9060ff1681565b610166610202366004611329565b610873565b61012960065481565b61016661021e36600461129c565b6108e0565b61016661023136600461129c565b610be4565b6101666102443660046112d3565b610bf1565b61016661025736600461130c565b610c13565b61012961026a3660046113ed565b600760209081526000928352604080842090915290825290205481565b61028f610ca0565b6001546040517f70a082310000000000000000000000000000000000000000000000000000000081523060048201526000916001600160a01b0316906370a082319060240160206040518083038186803b1580156102ec57600080fd5b505afa158015610300573d6000803e3d6000fd5b505050506040513d601f19601f82011682018060405250810190610324919061141d565b60015460405163a9059cbb60e01b8152336004820152602481018390529192506001600160a01b03169063a9059cbb90604401602060405180830381600087803b15801561037157600080fd5b505af1158015610385573d6000803e3d6000fd5b505050506040513d601f19601f820116820180604052508101906103a99190611436565b5050565b60045460ff161561042b5760405162461bcd60e51b815260206004820152602e60248201527f43616e6e6f742077697468647261772f6465706f7369742066726f6d2f746f2060448201527f6c6f636b6564206272696467652e00000000000000000000000000000000000060648201526084015b60405180910390fd5b600454610100900460ff16801561045257503360009081526003602052604090205460ff16155b1561049f5760405162461bcd60e51b815260206004820152601960248201527f53656e646572206973206e6f742077686974656c6973746564000000000000006044820152606401610422565b604080516080808201835260018284019081527f61000000000000000000000000000000000000000000000000000000000000006060808501919091529083528351336020808301919091528186018890528183018790528551808303840181529184018652815191810191909120818501819052845180519083012086517f26f05c2f7239b6983075e58321292d77b3aa173d19b27257ac96ab362570f508818501528088019190915280840191909152855180820390930183529092018452805190820120600081815260029092529290205490919060ff16156105c75760405162461bcd60e51b815260206004820152601260248201527f416c72656164792077697468647261776e2e00000000000000000000000000006044820152606401610422565b600081815260026020908152604091829020805460ff1916600117905581517f8da5cb5b00000000000000000000000000000000000000000000000000000000815291513092638da5cb5b926004808301939192829003018186803b15801561062f57600080fd5b505afa158015610643573d6000803e3d6000fd5b505050506040513d601f19601f820116820180604052508101906106679190611453565b6001600160a01b031661067a8287610cfa565b6001600160a01b0316146106f65760405162461bcd60e51b815260206004820152602560248201527f5769746864726177616c206e6f74207369676e65642062792048797065726c6960448201527f717569642e0000000000000000000000000000000000000000000000000000006064820152608401610422565b60015460405163a9059cbb60e01b8152336004820152602481018690526001600160a01b039091169063a9059cbb90604401602060405180830381600087803b15801561074257600080fd5b505af1158015610756573d6000803e3d6000fd5b505050506040513d601f19601f8201168201806040525081019061077a9190611436565b507f10bbab89640b970dc9812da9ec3776047a5f2d03f488d141fb0e5cfd026f18e76040518060a00160405280336001600160a01b031681526020018681526020018581526020018781526020016107d0611151565b90526040805182516001600160a01b031681526020808401518183015283830151828401526060808501518051918401919091529081015160808084019190915292015160ff1660a082015291015160c082015260e00160405180910390a150505b505050565b61083f610ca0565b600555565b61084c610ca0565b6108566000611164565b565b610860610ca0565b6004805460ff1916911515919091179055565b61087b610ca0565b60005b825181101561083257816003600085848151811061089e5761089e611470565b6020908102919091018101516001600160a01b03168252810191909152604001600020805460ff19169115159190911790556108d98161149c565b905061087e565b60045460ff16156109595760405162461bcd60e51b815260206004820152602e60248201527f43616e6e6f742077697468647261772f6465706f7369742066726f6d2f746f2060448201527f6c6f636b6564206272696467652e0000000000000000000000000000000000006064820152608401610422565b600454610100900460ff16801561098057503360009081526003602052604090205460ff16155b156109cd5760405162461bcd60e51b815260206004820152601960248201527f53656e646572206973206e6f742077686974656c6973746564000000000000006044820152606401610422565b60065433906000906109df90426114b7565b60055460008281526007602090815260408083206001600160a01b038816845290915290205491925090610a149085906114d9565b1115610a885760405162461bcd60e51b815260206004820152603260248201527f6465706f73697420616d6f756e74206578636565647320746865206d6178696d60448201527f756d20666f72207468697320706572696f6400000000000000000000000000006064820152608401610422565b60008181526007602090815260408083206001600160a01b038616845290915281208054859290610aba9084906114d9565b90915550506001546040517f23b872dd0000000000000000000000000000000000000000000000000000000081526001600160a01b03848116600483015230602483015260448201869052909116906323b872dd90606401602060405180830381600087803b158015610b2c57600080fd5b505af1158015610b40573d6000803e3d6000fd5b505050506040513d601f19601f82011682018060405250810190610b649190611436565b507f9bd8f77afaab3dc8fc22be2be9c92a5ad8172b917bcb95553dc06f41e326ca366040518060600160405280846001600160a01b03168152602001858152602001610bae611151565b90526040805182516001600160a01b0316815260208084015190820152918101519082015260600160405180910390a150505b50565b610bec610ca0565b600655565b610bf9610ca0565b600480549115156101000261ff0019909216919091179055565b610c1b610ca0565b6001600160a01b038116610c975760405162461bcd60e51b815260206004820152602660248201527f4f776e61626c653a206e6577206f776e657220697320746865207a65726f206160448201527f64647265737300000000000000000000000000000000000000000000000000006064820152608401610422565b610be181611164565b6000546001600160a01b031633146108565760405162461bcd60e51b815260206004820181905260248201527f4f776e61626c653a2063616c6c6572206973206e6f7420746865206f776e65726044820152606401610422565b60008061a4b1461415610de257604080518082018252600881526745786368616e676560c01b6020918201528151808301835260018152603160f81b9082015281517f8b73c3c69bb8fe3d512ecc4cf759cc79239f7b179b0ffacaa9a75d522b39400f918101919091527fddd112a261429abc594f5771eb08d7fa47bff456b2e5f1a47907b78573e33d96918101919091527fc89efdaa54c0f20c7adf612882df0950f5a951637e0307cdcb4c672f298b8bc6606082015261a4b16080820152600060a082015260c0015b60405160208183030381529060405280519060200120905061108e565b610539461415610eae57604080518082018252600881526745786368616e676560c01b6020918201528151808301835260018152603160f81b9082015281517f8b73c3c69bb8fe3d512ecc4cf759cc79239f7b179b0ffacaa9a75d522b39400f918101919091527fddd112a261429abc594f5771eb08d7fa47bff456b2e5f1a47907b78573e33d96918101919091527fc89efdaa54c0f20c7adf612882df0950f5a951637e0307cdcb4c672f298b8bc660608201526105396080820152600060a082015260c001610dc5565b6005461415610f7857604080518082018252600881526745786368616e676560c01b6020918201528151808301835260018152603160f81b9082015281517f8b73c3c69bb8fe3d512ecc4cf759cc79239f7b179b0ffacaa9a75d522b39400f918101919091527fddd112a261429abc594f5771eb08d7fa47bff456b2e5f1a47907b78573e33d96918101919091527fc89efdaa54c0f20c7adf612882df0950f5a951637e0307cdcb4c672f298b8bc6606082015260056080820152600060a082015260c001610dc5565b62066eed46141561104657604080518082018252600881526745786368616e676560c01b6020918201528151808301835260018152603160f81b9082015281517f8b73c3c69bb8fe3d512ecc4cf759cc79239f7b179b0ffacaa9a75d522b39400f918101919091527fddd112a261429abc594f5771eb08d7fa47bff456b2e5f1a47907b78573e33d96918101919091527fc89efdaa54c0f20c7adf612882df0950f5a951637e0307cdcb4c672f298b8bc6606082015262066eed6080820152600060a082015260c001610dc5565b60405162461bcd60e51b815260206004820152600b60248201527f62616420636861696e49640000000000000000000000000000000000000000006044820152606401610422565b6040517f19010000000000000000000000000000000000000000000000000000000000006020820152602281018290526042810185905260009060620160408051808303601f190181528282528051602091820120878301518851898401516000875293860180865283905260ff9091169385019390935260608401929092526080830152915060019060a0016020604051602081039080840390855afa15801561113d573d6000803e3d6000fd5b5050604051601f1901519695505050505050565b600061115f426103e86114f1565b905090565b600080546001600160a01b038381167fffffffffffffffffffffffff0000000000000000000000000000000000000000831681178455604051919092169283917f8be0079c531659141344cd1fd0a4f28419497f9722a3daafe3b4186f6b6457e09190a35050565b634e487b7160e01b600052604160045260246000fd5b604051601f8201601f1916810167ffffffffffffffff8111828210171561120b5761120b6111cc565b604052919050565b600080600083850360a081121561122957600080fd5b606081121561123757600080fd5b506040516060810181811067ffffffffffffffff8211171561125b5761125b6111cc565b80604052508435815260208501356020820152604085013560ff8116811461128257600080fd5b604082015295606085013595506080909401359392505050565b6000602082840312156112ae57600080fd5b5035919050565b8015158114610be157600080fd5b80356112ce816112b5565b919050565b6000602082840312156112e557600080fd5b81356112f0816112b5565b9392505050565b6001600160a01b0381168114610be157600080fd5b60006020828403121561131e57600080fd5b81356112f0816112f7565b6000806040838503121561133c57600080fd5b823567ffffffffffffffff8082111561135457600080fd5b818501915085601f83011261136857600080fd5b813560208282111561137c5761137c6111cc565b8160051b925061138d8184016111e2565b82815292840181019281810190898511156113a757600080fd5b948201945b848610156113d157853593506113c1846112f7565b83825294820194908201906113ac565b96506113e090508782016112c3565b9450505050509250929050565b6000806040838503121561140057600080fd5b823591506020830135611412816112f7565b809150509250929050565b60006020828403121561142f57600080fd5b5051919050565b60006020828403121561144857600080fd5b81516112f0816112b5565b60006020828403121561146557600080fd5b81516112f0816112f7565b634e487b7160e01b600052603260045260246000fd5b634e487b7160e01b600052601160045260246000fd5b60006000198214156114b0576114b0611486565b5060010190565b6000826114d457634e487b7160e01b600052601260045260246000fd5b500490565b600082198211156114ec576114ec611486565b500190565b600081600019048311821515161561150b5761150b611486565b50029056fea264697066735822122019e74ba32535ad28047c6384731df6520468e99a1ec46b2bf540367b180b4ca464736f6c63430008090033",
  "linkReferences": {},
  "deployedLinkReferences": {}
}